:1000000021C091C171C370C338C037C036C035C07C
:1000100076C133C032C064C130C02FC02EC02DC0E5
:100020002CC0101610180700001600092500123405
:10003000001B43002407002D160036250100340163
:100040000943011211241FBECFE5D1E0DEBFCDBFB1
:1000500010E0A0E6B0E0E0E2FCE002C005900D9206
:10006000A837B107D9F710E0A8E7B0E001C01D92AA
:10007000A73EB107E1F7DAD1D1C5C2CFDA9820E0C7
:1000800030E0482F50E061E0CA01022E02C0880F24
:10009000991F0A94E2F787FF02C0DD9A01C0DD983C
:1000A00091E0862F8A95F1F7DC9A862F8A95F1F7F1
:1000B000DC982F5F3F4F2830310531F7892F8A9523
:1000C000F1F7DA9A892F8A95F1F708951F93162F81
:1000D000DB988068D3DF812F8064D0DF1F91089583
:1000E000FF920F931F93982FF62E80E0692FEEDF7B
:1000F000DB9A00E007C010E080E0C0DF1F5F14352E
:10010000D9F70F5F0F15B8F31F910F91FF90089566
:10011000EF92FF920F931F93CF93DF93142FF22E42
:10012000D5DFDB9AEE2091F4E12EC12FD0E0CF0D88
:10013000D11D06C0E256FF4F808180279FDFE394E8
:10014000EE2DF0E0EC17FD07ACF30DC0EF2CE10E47
:1001500008C0EE2DF0E0E256FF4F808180278EDF51
:10016000EA941E15B0F3DF91CF911F910F91FF908C
:10017000EF900895CF92DF92EF920F931F93C82EC6
:10018000162F90E07AD08091600061E040E020E29C
:1001900000E0E12EBDDF8091600062E040E220E2FD
:1001A000B7DFDD24C601019668D08091600063E06E
:1001B00040E020E2ADDF8091600064E040E220E2B8
:1001C000A7DF1F910F91EF90DF90CF900895CF920E
:1001D000DF92EF92FF920F931F93CF93DF93D82E6E
:1001E000C62E282F392F79012AC0903239F410E019
:1001F00080E044DF1F5F1530D9F71CC0913211F445
:1002000087E30AC09F3311F48CE306C0892F90E086
:1002100065E070E0F1D4805F90E0EC01C058DF4F02
:100220008C010B571F4FCE0147D028DF2196C017F6
:10023000D107C9F780E022DF0894E11CF11CF70127
:100240009081992321F08E2D8D198C1570F2DF91FC
:10025000CF911F910F91FF90EF90DF90CF90089575
:100260000F931F938C01A6D280EAC9D2812FC7D2E7
:10027000802FC5D21F910F9108950F931F93CF9395
:10028000DF938C0126E0880F991F2A95E1F7E8DFBC
:1002900091D281EAB4D2CEE9D0E0ECD2899302D3F4
:1002A00080E0CD3DD807C9F716D300939D00DF91BC
:1002B000CF911F910F9108951F93D2DF7BD281EAD6
:1002C0009ED2D8D2182F07D3812F1F910895369A26
:1002D0003699FECF85B1369A3699FECF85B108950D
:1002E0001F920F920FB60F9211248F9381E080938B
:1002F00078008F910F900FBE0F901F9018951F924E
:100300000F920FB60F9211248F938091DF008823F4
:1003100019F082E08093E2001EBC8F910F900FBE17
:100320000F901F9018951F920F920FB60F921124E5
:100330002F933F934F938F939F93EF93FF932CB5FE
:100340003DB51DBC1CBC8091E200882359F410927D
:10035000DF001092E3001092E20081E08EBD8093F6
:10036000E20047C08091E200813009F042C08091F4
:10037000E400869586958093E400C90180529340FD
:100380008052934018F48091E40016C0C901805453
:1003900096408052934020F48091E40080640CC029
:1003A000205639402052334020F48091E400806888
:1003B00003C08091E400806C8093E4008091E300AE
:1003C000833091F4E091DF00F0E0EF71F070809104
:1003D000E400E358FF4F80838091DF008F5F8093BC
:1003E000DF001092E30005C08091E3008F5F8093EF
:1003F000E300FF91EF919F918F914F913F912F914A
:100400000F900FBE0F901F90189581E064E068DE9A
:100410006091E5007091E60082E1ACDE8AE08093B5
:10042000DE0083E08093E0007CD20895BF92CF92FB
:10043000DF92EF92FF920F931F93CF93DF9381B5DB
:10044000886181BD11BC8CEF8ABB17BA92E09BBB5F
:1004500023E028BB95BF80E78BBF20BD92BB1FBCAC
:1004600011E01CB910BE84E083BF19BF24EC39E051
:10047000C9010197F1F7DA9896EC9BBBF901319726
:10048000F1F786E88BBBE4EDF0E33197F1F79BBB26
:10049000C9010197F1F7DA9ADB9881E2EFDD84E197
:1004A000EDDD85EBEBDD80E2E9DD8CE0E7DD80E092
:1004B00066E016DE80E887B984E886B980E183B912
:1004C00011B91092E00076D380E160E053DE7894B9
:1004D000FF243AE0B32EC0E2DEE4CC24C3941092B1
:1004E00078000EC08091E200823019F48FD2109211
:1004F000E20080917C00882319F053D310927C0095
:1005000080917800882371F3E2DED82E8091E0009C
:100510008130C1F58F2D90E0F0FE23C08270907085
:100520009695879569E070E067D3182F155E81E096
:1005300090E0A3DE80916000909161000A9730F016
:1005400080916000909161008A5005C080916000A8
:10055000909161008F5D62E0412F29E000E0EE2480
:10056000D7DD8091790090917A00892B51F08091AC
:10057000790090917A00019790937A0080937900A6
:1005800001C043DF8091E000882309F052C08F2D25
:1005900090E083709070892B09F04BC0EF2DE695A9
:1005A000E695E370F0E0EE5DFF4FE4916091E500C9
:1005B0007091E6008E2FDEDD8091E5009091E600DF
:1005C000892B99F48091600090916100029730F03E
:1005D0008091600090916100029712C081E090E0EC
:1005E0009093E6008093E50014C0809160009091A4
:1005F0006100C39750F48091600090916100029671
:10060000909361008093600004C01092E600109205
:10061000E5008091790090917A008F3F910549F033
:100620008091790090917A00019690937A0080935E
:1006300079008091E000813021F08091E0008230EB
:1006400059F48AE58D1540F48091790090917A00F3
:100650008034910508F4D9DE8091E0008823B1F45C
:100660008FE48D1598F08091790090917A0081380F
:10067000910560F06091E5007091E60082E17ADD1D
:10068000B092DE0082E08093E0004BD18091DE00EA
:10069000882331F08091DE0081508093DE0022C0FB
:1006A0008091E000823051F46091E5007091E600A5
:1006B00084E160DD24D1C092E00014C08091E000AC
:1006C000833081F46091E5007091E60080E152DDB5
:1006D00016D1CE010197F1F724D1CE010197F1F7A0
:1006E0001092E000F394FBCE1F920F920FB60F9280
:1006F00011242F933F934F935F936F937F938F9327
:100700009F93AF93BF93EF93FF9384EC99E001978E
:10071000F1F7B09913C080917B008093E100809144
:100720007B00882311F489E003C080917B00815015
:1007300080937B0081E080937C00F3D0C99914C042
:1007400080917B008093E10080917B00893019F4D7
:1007500010927B0005C080917B008F5F80937B00AF
:1007600081E080937C00DDD0B19BC9D084EC99E01E
:100770000197F1F783E080BDFF91EF91BF91AF91B9
:100780009F918F917F916F915F914F913F912F91A9
:100790000F900FBE0F901F901895882311F0D798D7
:1007A00001C0D79ADF980895882311F0DC9A089544
:1007B000DC9808951F93DC9A11E0812F8A95F1F758
:1007C00080E0EBDF1A95F1F7DC9883E08A95F1F78A
:1007D0001F9108951F9311E0812F8A95F1F7DC98FE
:1007E000812F8A95F1F780E0D8DF812F8A95F1F784
:1007F000DC9A1A95F1F781E0D0DF1F910895EF920E
:10080000FF921F93CF93DF93C0E0D0E0E82EFF2448
:10081000C7010C2E02C0880F991F0A94E2F787FFC8
:1008200002C081E001C080E0B8DF11E0812F8A952D
:10083000F1F7DC9A812F8A95F1F7DC982196C83080
:10084000D10531F781E0A9DF812F8A95F1F7DC9A94
:10085000812F8A95F1F789B3912F9A95F1F7DC985A
:10086000912F9A95F1F78770DF91CF911F91FF90AB
:10087000EF90089581E091DF80E020E031E0DC98A6
:10088000932F9A95F1F7DC9A932F9A95F1F7880FA9
:10089000CF9981602F5F283091F791E09A95F1F719
:1008A000DC9808951F93DC9811E0812F8A95F1F769
:1008B00080E073DF812F8A95F1F7DC9A812F8A958A
:1008C000F1F7DC98812F8A95F1F781E066DF1A95C0
:1008D000F1F71F9108951F93DC9811E0812F8A95FD
:1008E000F1F781E05ADF812F8A95F1F7DC9A812FA9
:1008F0008A95F1F7DC981A95F1F71F91089582E037
:1009000080BDB89A90E031E025E888B3832788BBA2
:10091000822F8A95F1F79F5F9034B9F7B898C09A03
:10092000089582E080BDB89A90E031E022E488B377
:10093000832788BB822F8A95F1F79F5F9034B9F7A0
:10094000B898C09A089590E031E024E08BB38327F3
:100950008BBB822F8A95F1F79F5F9431B9F7089589
:100960000F931F93CF93DF93082F10E0C8EED3E0CF
:10097000EADF40E0202F30E02370307004C0CE0169
:100980000197F1F74F5F842F90E082179307BCF334
:100990001F5F143019F006950695EACFDF91CF91CD
:1009A0001F910F910895FF920F931F93CF93DF93A1
:1009B000182F042F1655F12EF40E1A5AEB01FB01D5
:1009C00090E003C08191F80E9F5F9017D8F381EB00
:1009D000C7DF812FC5DF802FC3DF10E003C08991FF
:1009E000BFDF1F5F1017D8F38F2DBADFACDFDF91A9
:1009F000CF911F910F91FF90089588E090E03DDC2A
:100A000080E16EE970E04CE0CEDF08950F931F9314
:100A1000CF93DF93CEE9D0E080917D00813B09F058
:100A200086C091E02AEA05C0E358FF4F8081280F75
:100A30009F5F80917F00E92FF0E08917A8F7E358C6
:100A4000FF4F8081281709F072C082E080BDB89AFC
:100A500090E031E022E488B3832788BB822F8A9517
:100A6000F1F79F5F9032B9F7B898C09A83E080BDE4
:100A700080917E0000917F00813009F458C0883059
:100A800009F455C08930E9F440918000209181003B
:100A9000942F80E030E0822B932BE2DB80EAAFDE04
:100AA00010E0C02FD0E0229705C0EE57FF4F8081A5
:100AB000A6DE1F5FE12FF0E0EC17FD07B4F38ADE3E
:100AC00036C08031A1F588E090E0D7DB1C2F0D2FD8
:100AD000CE01DC0123E030E0F901E358FF4F9081C3
:100AE0008C91891799F4822F825011962F5F3F4F76
:100AF0002F30310589F78C3049F480E066E0F0DA78
:100B000086E062E0E3DA82E690E008C080E066E03A
:100B1000E7DA86E062E0DADA8FE690E060E157DB60
:100B20008CE063E0D3DA812F902F6CE050DBDF9113
:100B3000CF911F910F910895EF920F931F93DF9321
:100B4000CF9300D00F92CDB7DEB7182F062F8FEFBF
:100B500080939D00812F90E063E070E04DD0BC0158
:100B60006A5D7F4FCE01019643E034D09A81809137
:100B70009D00981719F0892F90E07FDB898115304F
:100B800010F065E001C060E04B8129E0EE24C0DA9E
:100B90000F900F900F90CF91DF911F910F91EF90D9
:100BA00008958091E10060E0C7DF80917B006FEFE6
:100BB000C3DF08951F9310E080917B00811711F02F
:100BC00060E001C06FEF812FB7DF1F5F1A30A1F720
:100BD0001F9108951F93582F142F282F392FD901B3
:100BE00005C0FB016F5F7F4FE491ED938A2F851B5A
:100BF0008117B8F31F9108955527002480FF02C084
:100C0000060E571F660F771F6115710521F0969527
:100C10008795009799F7952F802D0895F894FFCF29
:100C20001A004845592120414E4F54484552005220
:080C30004D54204953204100FE
:00000001FF
