:1000000021C091C191C390C338C037C036C035C03C
:1000100076C133C032C031C030C02FC02EC02DC019
:100020002CC007000016000925001234001B4300F5
:100030002407002D16003625010034010943011262
:100040001016101811241FBECFE5D1E0DEBFCDBFC2
:1000500010E0A0E6B0E0EAE6FBE002C005900D92F9
:10006000A837B107D9F710E0A8E7B0E001C01D92AA
:10007000A43EB107E1F728D276C5C2CFDA9821E0D5
:100080002A95F1F720E030E0482F50E061E0CA0106
:10009000022E02C0880F991F0A94E2F787FF02C060
:1000A000DD9A01C0DD9891E0862F8A95F1F7DC9A00
:1000B000862F8A95F1F7DC982F5F3F4F2830310566
:1000C00031F7892F8A95F1F7DA9A892F8A95F1F716
:1000D00008951F93DB9A10E080E0D0DF80E0CEDF50
:1000E0001F5F1C3FC9F71F9108951F93162FDB98C0
:1000F0008068C4DF812F8064C1DFDB9A1F9108957F
:10010000EF92FF920F931F93CF93DF93142FF22E52
:10011000ECDFEE2091F4E12EC12FD0E0CF0DD11D08
:1001200006C0E456FF4F80818027A8DFE394EE2DC0
:10013000F0E0EC17FD07ACF30DC0EF2CE10E08C0AA
:10014000EE2DF0E0E456FF4F8081802797DFEA94A0
:100150001E15B0F3DF91CF911F910F91FF90EF909B
:100160000895CF92DF92EF920F931F93C82E162F10
:1001700090E085D08091600061E040E020E200E006
:10018000E12EBEDF8091600062E040E220E2B8DF55
:10019000DD24C601019673D08091600063E040E0E9
:1001A00020E2AEDF8091600064E040E220E2A8DF60
:1001B0001F910F91EF90DF90CF900895CF92DF9233
:1001C000EF92FF920F931F93CF93DF93D82EC62EFB
:1001D000282F392F79012AC0903239F410E080E0BD
:1001E0004DDF1F5F1530D9F71CC0913211F487E342
:1001F0000AC09F3311F48CE306C0892F90E065E0BC
:1002000070E09FD4805F90E0EC01C058DF4F8C011C
:100210000B571F4FCE0128D031DF2196C017D107D1
:10022000C9F780E02BDF0894E11CF11CF7019081F5
:10023000992321F08E2D8D198C1570F2DF91CF91BD
:100240001F910F91FF90EF90DF90CF9008950F9343
:100250001F938C01B4D280EAD7D2812FD5D2802FC0
:10026000D3D21F910F9108951F93F1DFA8D281EA95
:10027000CBD205D3182F38D3812F1F9108950F9318
:100280001F93CF93DF938C0126E0880F991F2A9547
:10029000E1F7DDDF94D281EAB7D2C0E0D0E0EFD25F
:1002A000FE01E456FF4F8083CF3311F41DD301C00C
:1002B00002D32196C034D10591F700939B00DF91C2
:1002C000CF911F910F910895369A3699FECF85B13F
:1002D000369A3699FECF85B108951F93582F142F63
:1002E000282F392FD90105C0FB016F5F7F4FE491A3
:1002F000ED938A2F851B8117B8F31F9108951F92E4
:100300000F920FB60F9211248F938091DD008823F6
:1003100019F082E08093DF001EBC8F910F900FBE1A
:100320000F901F9018951F920F920FB60F921124E5
:100330002F933F934F938F939F93EF93FF932CB5FE
:100340003DB51DBC1CBC8091DF00882359F4109280
:10035000DD001092E0001092DF0081E08EBD8093FE
:10036000DF0047C08091DF00813009F042C08091FA
:10037000E100869586958093E100C9018052934003
:100380008052934018F48091E10016C0C901805456
:1003900096408052934020F48091E10080640CC02C
:1003A000205639402052334020F48091E10080688B
:1003B00003C08091E100806C8093E1008091E000B7
:1003C000833091F4E091DD00F0E0EF71F070809106
:1003D000E100E558FF4F80838091DD008F5F8093BF
:1003E000DD001092E00005C08091E0008F5F8093F7
:1003F000E000FF91EF919F918F914F913F912F914D
:100400000F900FBE0F901F901895AF92BF92CF9292
:10041000DF92EF92FF920F931F93DF93CF9300D061
:100420000F92CDB7DEB78FEF80939B0022E2C22EF2
:1004300020E0D22E10E092E0A92EB12CAC0EBD1E11
:1004400085E0F82EF601849189830894C11CD11CA3
:10045000F6019491F50190830894C11CD11CF6011A
:1004600084912EEF3FEFC20ED31EF5018183809160
:100470009B00981719F0892F90E001DF99814B813B
:1004800080917A00811711F000E001C00FEF812FF9
:1004900086956F2D681B892F29E0EE2431DE1F5FC2
:1004A00023E030E0C20ED31E1A3061F60F900F9099
:1004B0000F90CF91DF911F910F91FF90EF90DF9000
:1004C000CF90BF90AF9008959F92AF92BF92CF927E
:1004D000DF92EF92FF920F931F93CF93DF9381B53B
:1004E000886181BD11BC8CEF8ABB17BA92E09BBBBF
:1004F00023E028BB95BF80E78BBF20BD92BB1FBC0C
:1005000011E01CB996EC9BBB24ED30E3F901319767
:10051000F1F786E88BBBE4ECF9E03197F1F79BBB90
:10052000C9010197F1F781E2A9DD8EEAA7DD83E138
:10053000A5DD80E2A3DD8CE0A1DDCBDD80E887B91D
:1005400084E886B980E183B911B95FDF80E160E0BA
:1005500008DE7894FF24C0E2DEE45AE0C52E992438
:10056000939440E5A42E43ECB42E8091DF008230BA
:1005700019F455D21092DF00A7DED82E8091DE004C
:100580008130B1F58F2D90E0F0FE23C08270907025
:100590009695879569E070E0D4D2182F1E5E81E0B1
:1005A00090E06DDE80916000909161000A9730F0DC
:1005B00080916000909161008A5005C08091600038
:1005C000909161008F5D62E0412F29E000E0EE2410
:1005D00097DD8091780090917900892B49F0809186
:1005E000780090917900019790937900809378003A
:1005F0008091DE008823C9F5EF2DE270F0E0E05C29
:10060000FF4FE4916091E2007091E3008E2FA9DD2D
:100610008091E2009091E300892B99F48091600031
:1006200090916100029730F080916000909161009C
:10063000029712C081E090E09093E3008093E20083
:1006400014C08091600090916100C39750F4809134
:100650006000909161000296909361008093600029
:1006600004C01092E3001092E2008091DE0081301D
:1006700021F08091DE00823041F584E68D1528F569
:1006800086E162E032DD80E0F9DC80E0F7DC80E0EA
:10069000F5DC80E0F3DC80E0F1DC80E0EFDC80E0A2
:1006A000EDDC80E0EBDC80E0E9DC6091E200709161
:1006B000E30080E156DD1092DE003CD1CE010197CF
:1006C000F1F738D1CE010197F1F78091DE00882350
:1006D00079F48FE48D1560F06091E2007091E30091
:1006E00082E13FDDC092DC0082E08093DE0022D117
:1006F0008091DE00823099F48091DC00882331F013
:100700008091DC0081508093DC0009C06091E200A0
:100710007091E30084E125DDFBD09092DE00F3943C
:10072000C5010197F1F721CF1F920F920FB60F92DB
:1007300011242F933F934F935F936F937F938F93E6
:100740009F93AF93BF93EF93FF9382EE94E0019753
:10075000F1F7C99BEFD0B0990EC080917A00893033
:1007600019F410927A0005C080917A008F5F80930F
:100770007A004BDECDD0B19BDDD086EA9EE00197BA
:10078000F1F7FF91EF91BF91AF919F918F917F9181
:100790006F915F914F913F912F910F900FBE0F90EE
:1007A0001F901895882311F0D79801C0D79ADF9829
:1007B0000895882311F0DC9A0895DC9808951F931A
:1007C000DC9A11E0812F8A95F1F780E0EBDF1A9532
:1007D000F1F7DC9883E08A95F1F71F9108951F9354
:1007E00011E0812F8A95F1F7DC98812F8A95F1F736
:1007F00080E0D8DF812F8A95F1F7DC9A1A95F1F71E
:1008000081E0D0DF1F910895EF92FF921F93CF9365
:10081000DF93C0E0D0E0E82EFF24C7010C2E02C019
:10082000880F991F0A94E2F787FF02C081E001C098
:1008300080E0B8DF11E0812F8A95F1F7DC9A812FF3
:100840008A95F1F7DC982196C830D10531F781E01F
:10085000A9DF812F8A95F1F7DC9A812F8A95F1F72C
:1008600089B3812F8A95F1F7DC98812F8A95F1F76A
:1008700080E0DF91CF911F91FF90EF9008950F934B
:100880001F9310E000E081E08DDFDC9881E0982F7D
:100890009A95F1F7DC9A8A95F1F7110FCF991160CB
:1008A00081E08A95F1F7DC980F5F083061F7812FBE
:1008B0001F910F9108951F93DC9811E0812F8A9565
:1008C000F1F780E06FDF812F8A95F1F7DC9A812FB5
:1008D0008A95F1F7DC98812F8A95F1F781E062DF44
:1008E0001A95F1F71F9108951F93DC9811E0812F5D
:1008F0008A95F1F781E056DF812F8A95F1F7DC9A2E
:10090000812F8A95F1F7DC981A95F1F71F910895D8
:1009100082E080BDB89A90E031E025E888B3832773
:1009200088BB822F8A95F1F79F5F9034B9F7B8980A
:10093000C09A089582E080BDB89A90E031E022E448
:1009400088B3832788BB822F8A95F1F79F5F903405
:10095000B9F7B898C09A089590E031E024E08BB3DD
:1009600083278BBB822F8A95F1F79F5F9431B9F76C
:1009700008950F931F93CF93DF93082F10E0C8EED5
:10098000D3E0EADF40E0202F30E02370307004C075
:10099000CE010197F1F74F5F842F90E08217930704
:1009A000BCF31F5F143019F006950695EACFDF916E
:1009B000CF911F910F910895FF920F931F93CF93A3
:1009C000DF93182F042F1655F12EF40E1A5AEB014F
:1009D000FB0190E003C08191F80E9F5F9017D8F360
:1009E00081EBC7DF812FC5DF802FC3DF10E003C09D
:1009F0008991BFDF1F5F1017D8F38F2DBADFACDFEF
:100A0000DF91CF911F910F91FF90089588E090E0C2
:100A100036DC80E16CE970E04CE0CEDF08950F93A6
:100A20001F93CF93DF93CCE9D0E080917B00813B93
:100A300009F082C091E02AEA05C0E558FF4F8081A5
:100A4000280F9F5F80917D00E92FF0E08917A8F7BC
:100A5000E558FF4F8081281709F06EC082E080BD05
:100A6000B89A90E031E022E488B3832788BB822FD4
:100A70008A95F1F79F5F9032B9F7B898C09A83E0F2
:100A800080BD80917C0000917D00813009F454C0CC
:100A9000883009F451C08930E9F440917E002091FA
:100AA0007F00942F80E030E0822B932BD0DB80EA14
:100AB000ABDE10E0C02FD0E0229705C0E058FF4F1A
:100AC0008081A2DE1F5FE12FF0E0EC17FD07B4F399
:100AD00086DE32C0803181F588E090E0D0DB1C2FCB
:100AE0000D2FCE01DC0123E030E0F901E558FF4F86
:100AF00090818C91891789F4822F825011962F5FF3
:100B00003F4F2F30310589F78C3039F4E2DA86E037
:100B100062E0EBDA82E690E006C0DBDA86E062E0D3
:100B2000E4DA8FE690E060E149DB8CE063E0DDDA57
:100B3000812F902F6CE042DBDF91CF911F910F91BD
:100B400008955527002480FF02C0060E571F660F28
:100B5000771F6115710521F096958795009799F794
:0A0B6000952F802D0895F894FFCF23
:100B6A001A004845592120414E4F544845520052D7
:080B7A004D54204953204100B5
:00000001FF
