:1000000010C0EBC029C028C027C026C025C024C00E
:1000100064C022C021C020C01FC01EC01DC01CC0A3
:100020001BC011241FBECFE5D1E0DEBFCDBF10E065
:10003000A0E6B0E0ECE3F6E002C005900D92AA372E
:10004000B107D9F710E0AAE7B0E001C01D92A03ACD
:10005000B107E1F733D2F0C2D3CF369A3699FECF4B
:1000600085B1369A3699FECF85B10895DA9821E0A8
:100070002A95F1F720E030E0482F50E061E0CA0116
:10008000022E02C0880F991F0A94E2F787FF02C070
:10009000DD9A01C0DD9891E0862F8A95F1F7DC9A10
:1000A000862F8A95F1F7DC982F5F3F4F2830310576
:1000B00031F7892F8A95F1F7DA9A892F8A95F1F726
:1000C00008951F93DB9A10E080E0D0DF80E0CEDF60
:1000D0001F5F1C3FC9F71F9108951F920F920FB623
:1000E0000F9211248F9381E080939E0010929F00C5
:1000F00010929D008F910F900FBE0F901F9018953A
:10010000882311F0D79801C0D79ADF9808958823E3
:1001100011F0DC9A0895DC9808951F93DC9A11E0A1
:10012000812F8A95F1F780E0EBDF1A95F1F7DC98E3
:1001300086E08A95F1F71F9108951F9311E0812FB2
:100140008A95F1F7DC98812F8A95F1F780E0D8DF66
:10015000812F8A95F1F7DC9A1A95F1F781E0D0DFCB
:100160001F910895EF92FF921F93CF93DF93C0E00A
:10017000D0E0E82EFF24C7010C2E02C0880F991F83
:100180000A94E2F787FF02C081E001C080E0B8DF97
:1001900011E0812F8A95F1F7DC9A812F8A95F1F78A
:1001A000DC982196C830D10531F781E0A9DF83E0E2
:1001B0008A95F1F7DC9A812F8A95F1F789B3812F1F
:1001C0008A95F1F7DC98812F8A95F1F780E0DF912D
:1001D000CF911F91FF90EF9008951F920F920FB64D
:1001E0000F9211241F932F933F934F935F936F931D
:1001F0007F938F939F93AF93BF93EF93FF932CB510
:100200003DB51DBC1CBC80919E00882309F0A3C095
:100210004FE0203A340708F454C028553B4108F019
:100220004AC080917D00813B09F042C010927D0060
:1002300090E02AEA05C0E058FF4F8081280F9F5FB9
:1002400080917F00E92FF0E09817A8F3E058FF4F66
:100250008081281769F590E031E022E488B3832794
:1002600088BB822F8A95F1F79F5F9032B9F718BA51
:1002700080917E008823D9F450DF80EA73DF80917B
:10028000800070DF809181006DDF10E005C0EE57C7
:10029000FF4F808167DF1F5FE12FF0E080917F00DB
:1002A00090E00297E817F90794F347DF01C009DFF0
:1002B00010929F0052C081E080939E0010929F0098
:1002C00041C080917B008695869580937B00C90113
:1002D000805293408052934020F480917B00809321
:1002E0007B00C901805496408052934028F480914D
:1002F0007B00806480937B00C901805699408052C6
:10030000934028F480917B00806880937B00205884
:100310003C402052334028F480917B00806C8093D5
:100320007B0080919D00833081F4E0919F00F0E09C
:1003300080917B00E358FF4F808380919F008F5F07
:1003400080939F0010929D0008C080919D008F5F58
:1003500080939D0002C010929E00FF91EF91BF918B
:10036000AF919F918F917F916F915F914F913F914D
:100370002F911F910F900FBE0F901F901895FF9215
:100380000F931F9310E000E08AE0F82E81E0B8DEC2
:10039000DC9881E08A95F1F7DC9A8F2D8A95F1F748
:1003A000110FCF9911608F2D8A95F1F7DC980F5FAF
:1003B000083061F7812F1F910F91FF9008951F93CF
:1003C000DC9811E0812F8A95F1F780E099DE812F8A
:1003D0008A95F1F7DC9A812F8A95F1F7DC98812FC5
:1003E0008A95F1F781E08CDE1A95F1F71F91089557
:1003F0001F93DC9811E0812F8A95F1F781E080DE70
:10040000812F8A95F1F7DC9A1A95F1F7DC9883E051
:100410008A95F1F71F9108950F931F938C017DDE4C
:1004200080EAA0DE812F9EDE802F9CDE8AEF90E0A6
:100430000197F1F772DE81EA95DEA1DF182FD8DF90
:10044000812F1F910F910895EF92FF920F931F93A9
:10045000CF93DF937C0127C0803239F410E080E035
:1004600005DE1F5F1530D9F719C0813211F487E31B
:1004700009C08F3311F48CE305C090E065E070E0B3
:10048000C9D0805FC82FD0E08E010B5F1F4FCE0117
:10049000C3DFECDD2196C017D107C9F780E0E6DDA8
:1004A0000894E11CF11CF70180818823A9F6DF91F3
:1004B000CF911F910F91FF90EF900895EF92FF92CF
:1004C0000F931F93CF93DF9381B5886181BD11BCDA
:1004D0008CE78ABB11E017BB82E085BF80E48BBF4D
:1004E0001FBC1EBD1CB924EC2BBB84ED90E3FC01AA
:1004F0003197F1F704E80BBBE4ECF9E03197F1F741
:100500002BBB0197F1F781E2B1DD8CEAAFDD84E12D
:10051000ADDD80E2ABDD8CE0A9DDD3DD80E887B91D
:1005200006B980E183B911B9DB9880E49FDD80E8EA
:100530009DDDDB9AC0E0D0E0EE24FF2419C0C801A5
:100540008C0F9D1F895F91402CF4C8018E0D9F1D5B
:1005500063DF8CDD0F5F1F4F0A31110581F76A964B
:1005600080E490E0E80EF91E92E0C830D90719F057
:1005700000E010E0E4CF7894C0E5D3EC2AE0E22E6E
:1005800092E0F92E01E069DD182FCE010197F1F715
:1005900080917C00813021F080917C00823069F470
:1005A000153658F0DB9881E461DD80E85FDDDB9A89
:1005B00080E690E049DF10927C0080917C008823E7
:1005C00079F4103568F4DB9881E450DD80E84EDD85
:1005D000DB9A89E690E038DFE0927A00F0927C00C6
:1005E00080917C00823079F680917A00882331F006
:1005F00080917A00815080937A00C5CFDB9881E4A6
:1006000035DD80E833DDDB9A81E790E01DDF009384
:100610007C00B9CF5527002480FF02C0060E571F6B
:10062000660F771F6115710521F0969587950097E4
:0C06300099F7952F802D0895F894FFCFC6
:10063C004157414B4520202000534C454550203F0D
:0A064C0000534C454550494E47004D
:00000001FF
