:1000000010C084C2F7C0F6C027C026C025C024C0D7
:1000100051C022C021C020C01FC01EC01DC01CC0B6
:100020001BC011241FBECFE5D1E0DEBFCDBF10E065
:10003000A0E6B0E0E2E8FAE002C005900D92A23638
:10004000B107D9F710E0A2E6B0E001C01D92AD3CC7
:10005000B107E1F710D113C5D3CF369A3699FECF49
:1000600085B1369A3699FECF85B1089582E080BD7C
:10007000B89A90E031E025E888B3832788BB822FC7
:100080008A95F1F79F5F9034B9F7B898C09A0895B0
:1000900082E080BDB89A90E031E022E488B3832703
:1000A00088BB822F8A95F1F79F5F9034B9F7B89893
:1000B000C09A08951F920F920FB60F9211248F933A
:1000C00081E08093C9001092CA001092C8008F91FD
:1000D0000F900FBE0F901F901895EF920F9380E036
:1000E00090E092D480916400882311F000E001C078
:1000F0000FEF87E060E040E029E0EE2421D380911B
:100100006400813011F000E001C00FEF86E160E093
:1001100049E029E0EE2414D380916400823011F08C
:1001200000E001C00FEF85E260E042E129E0EE244B
:1001300007D380916400833011F000E001C00FEF1D
:1001400084E360E04BE129E0EE24FAD28091640080
:10015000843011F000E001C00FEF83E460E044E27E
:1001600029E0EE24EDD280916400853011F000E0AA
:1001700001C00FEF87E065E04DE229E0EE24E0D218
:1001800080916400863011F000E001C00FEF86E13D
:1001900065E046E329E0EE24D3D281E090E034D458
:1001A00080916400873011F000E001C00FEF85E21C
:1001B00065E040E029E0EE24C3D2809164008830FD
:1001C00011F000E001C00FEF84E365E049E029E0B1
:1001D000EE24B6D280916400893011F000E001C0B5
:1001E0000FEF83E465E042E129E0EE24A9D20F910C
:1001F000EF9008951F920F920FB60F9211242F9334
:100200003F934F935F936F937F938F939F93AF939E
:10021000BF93EF93FF9382EE94E00197F1F7C99BB0
:1002200037DFB0990EC080916400893019F41092C4
:10023000640005C0809164008F5F809364004DDF8F
:1002400015DFB19B25DF86EA9EE00197F1F783E099
:1002500080BD1ABEFF91EF91BF91AF919F918F9199
:100260007F916F915F914F913F912F910F900FBEB2
:100270000F901F9018959F92AF92BF92CF92DF92EE
:10028000EF92FF920F931F93CF93DF9381B5886115
:1002900081BD11BC8CE78ABB17BA92E09BBB23E0FF
:1002A00028BB95BF80E78BBF20BD92BB1FBC11E070
:1002B0001EBD1CB996EC9BBB24ED30E3F9013197D0
:1002C000F1F786E88BBBE4ECF9E03197F1F79BBBE3
:1002D000C9010197F1F781E2F1D18EEAEFD183E113
:1002E000EDD180E2EBD18CE0E9D113D280E887B97F
:1002F00084E886B980E183B911B9EFDE80E160E07E
:1003000050D27894FF24C0E2DEE46AE0962ECC243A
:10031000C39450E5A52E53ECB52E9FDED82E8091C8
:10032000A700813009F041C00F2D10E0F0FE2EC073
:1003300081E090E069D38091600090916100A80114
:10034000427050700A9778F02091600030916100FF
:10035000CA019695879569E070E07FD3482F4E5E7D
:10036000822F8A500EC02091600030916100CA0136
:100370009695879569E070E070D3482F4E5E822F86
:100380008F5D62E029E000E0EE24DAD18091620026
:1003900090916300892B49F08091620090916300F5
:1003A000019790936300809362008091A700882357
:1003B00009F04DC08F2D90E083709070009761F030
:1003C0008130910531F46091CB007091CC0086E1D1
:1003D00010C08230910531F46091CB007091CC0057
:1003E00080E107C0039731F46091CB007091CC009D
:1003F00088E1D7D18091CB009091CC00892B99F4E2
:100400008091600090916100892B31F080916000B3
:1004100090916100029712C081E090E09093CC002F
:100420008093CB0014C08091600090916100C397CD
:1004300050F4809160009091610002969093610069
:100440008093600004C01092CC001092CB00809189
:10045000A700813021F08091A700823041F584E629
:100460008D1528F586E162E060D180E027D180E03B
:1004700025D180E023D180E021D180E01FD180E030
:100480001DD180E01BD180E019D180E017D16091AF
:10049000CB007091CC0080E184D11092A700F8DDF0
:1004A000CE010197F1F7F4DDCE010197F1F78091CC
:1004B000A700882379F48FE48D1560F06091CB005C
:1004C0007091CC0082E16DD19092A50082E0809382
:1004D000A700DEDD8091A700823099F48091A5000D
:1004E000882331F08091A50081508093A50009C038
:1004F0006091CB007091CC0084E153D1B7DDC09204
:10050000A700F394C5010197F1F707CF1F920F924F
:100510000FB60F9211241F932F933F934F935F9326
:100520006F937F938F939F93AF93BF93EF93FF93BB
:100530002CB53DB51DBC1CBC8091C900882309F0B9
:10054000A9C04FE0203A340708F45AC028553B416F
:1005500008F050C08091A800813B09F048C010927B
:10056000A80090E02AEA05C0E555FF4F8081280FDA
:100570009F5F8091AA00E92FF0E09817A8F3E55556
:10058000FF4F8081281799F582E080BDB89A90E0EE
:1005900031E022E488B3832788BB822F8A95F1F764
:1005A0009F5F9032B9F7B898C09A83E080BD809180
:1005B000A9008823D9F46BD180EA8ED18091AB0059
:1005C0008BD18091AC0088D110E005C0E355FF4F7E
:1005D000808182D11F5FE12FF0E08091AA0090E03E
:1005E0000297E817F90794F362D101C092D01092F4
:1005F000CA0052C081E08093C9001092CA0041C075
:100600008091A600869586958093A600C9018052A8
:1006100093408052934020F48091A6008093A600DE
:10062000C901805496408052934028F48091A600DE
:1006300080648093A600C9018056994080529340FF
:1006400028F48091A60080688093A60020583C4042
:100650002052334028F48091A600806C8093A6003D
:100660008091C800833081F4E091CA00F0E080916D
:10067000A600E855FF4F80838091CA008F5F80936A
:10068000CA001092C80008C08091C8008F5F809394
:10069000C80002C01092C900FF91EF91BF91AF91C5
:1006A0009F918F917F916F915F914F913F912F918A
:1006B0001F910F900FBE0F901F901895DA9821E0B0
:1006C0002A95F1F720E030E0482F50E061E0CA01C0
:1006D000022E02C0880F991F0A94E2F787FF02C01A
:1006E000DD9A01C0DD9891E0862F8A95F1F7DC9ABA
:1006F000862F8A95F1F7DC982F5F3F4F2830310520
:1007000031F7892F8A95F1F7DA9A892F8A95F1F7CF
:1007100008951F93DB9A10E080E0D0DF80E0CEDF09
:100720001F5F1C3FC9F71F9108951F93162FDB9879
:100730008058C4DF812F805CC1DFDB9A1F91089550
:10074000EF92FF920F931F93CF93DF93142FF22E0C
:10075000ECDFEE2091F4E12EC12FD0E0CF0DD11DC2
:1007600006C0EB59FF4F80818027A8DFE394EE2D70
:10077000F0E0EC17FD07ACF30DC0EF2CE10E08C064
:10078000EE2DF0E0EB59FF4F8081802797DFEA9450
:100790001E15B0F3DF91CF911F910F91FF90EF9055
:1007A0000895CF92DF92EF920F931F93C82E162FCA
:1007B00090E02AD18091600061E040E020E200E01A
:1007C000E12EBEDF8091600062E040E220E2B8DF0F
:1007D000DD24C601019618D18091600063E040E0FD
:1007E00020E2AEDF8091600064E040E220E2A8DF1A
:1007F0001F910F91EF90DF90CF900895EF92FF92AD
:100800000F931F93CF93DF937C0129C0803239F47B
:1008100010E080E053DF1F5F1530D9F71BC0813235
:1008200011F487E309C08F3311F48CE305C090E025
:1008300065E070E012D1805F90E0EC01C058DF4FBE
:100840008C010B571F4FCE01CBD038DF2196C0173C
:10085000D107C9F780E032DF0894E11CF11CF701F1
:100860008081882399F6DF91CF911F910F91FF909E
:10087000EF900895882311F0D79801C0D79ADF9898
:100880000895882311F0DC9A0895DC9808951F9349
:10089000DC9A11E0812F8A95F1F780E0EBDF1A9561
:1008A000F1F7DC9883E08A95F1F71F9108951F9383
:1008B00011E0812F8A95F1F7DC98812F8A95F1F765
:1008C00080E0D8DF812F8A95F1F7DC9A1A95F1F74D
:1008D00081E0D0DF1F910895EF92FF921F93CF9395
:1008E000DF93C0E0D0E0E82EFF24C7010C2E02C049
:1008F000880F991F0A94E2F787FF02C081E001C0C8
:1009000080E0B8DF11E0812F8A95F1F7DC9A812F22
:100910008A95F1F7DC982196C830D10531F781E04E
:10092000A9DF812F8A95F1F7DC9A812F8A95F1F75B
:1009300089B3812F8A95F1F7DC98812F8A95F1F799
:1009400080E0DF91CF911F91FF90EF9008950F937A
:100950001F9310E000E081E08DDFDC9881E0982FAC
:100960009A95F1F7DC9A8A95F1F7110FCF991160FA
:1009700081E08A95F1F7DC980F5F083061F7812FED
:100980001F910F9108951F93DC9811E0812F8A9594
:10099000F1F780E06FDF812F8A95F1F7DC9A812FE4
:1009A0008A95F1F7DC98812F8A95F1F781E062DF73
:1009B0001A95F1F71F9108951F93DC9811E0812F8C
:1009C0008A95F1F781E056DF812F8A95F1F7DC9A5D
:1009D000812F8A95F1F7DC981A95F1F71F91089508
:1009E0000F931F938C0153DF80EA76DF812F74DF32
:1009F000802F72DF4CDF81EA6FDFA9DF182FDCDF89
:100A0000812F1F910F9108950F931F93CF93DF9321
:100A10008C0186E0000F111F8A95E1F738DF80EA2C
:100A20005BDF812F59DF802F57DF31DF81EA54DF11
:100A3000C0E0D0E08CDFFE01EB59FF4F8083CF3365
:100A400011F4BADF01C09FDF2196C034D10591F7C0
:100A5000DF91CF911F910F9108955527002480FFBA
:100A600002C0060E571F660F771F6115710521F032
:100A700096958795009799F7952F802D0895F8946E
:020A8000FFCFA6
:020A82001A0058
:00000001FF
