:1000000010C0EBC029C028C027C026C025C024C00E
:1000100064C022C021C020C01FC01EC01DC01CC0A3
:100020001BC011241FBECFE5D1E0DEBFCDBF10E065
:10003000A0E6B0E0EAEEF6E002C005900D92A63828
:10004000B107D9F710E0A6E8B0E001C01D92AC3EC0
:10005000B107E1F773D247C3D3CF369A3699FECFB3
:1000600085B1369A3699FECF85B10895DA9821E0A8
:100070002A95F1F720E030E0482F50E061E0CA0116
:10008000022E02C0880F991F0A94E2F787FF02C070
:10009000DD9A01C0DD9891E0862F8A95F1F7DC9A10
:1000A000862F8A95F1F7DC982F5F3F4F2830310576
:1000B00031F7892F8A95F1F7DA9A892F8A95F1F726
:1000C00008951F93DB9A10E080E0D0DF80E0CEDF60
:1000D0001F5F1C3FC9F71F9108951F920F920FB623
:1000E0000F9211248F9381E08093EA001092EB002D
:1000F0001092E9008F910F900FBE0F901F901895EE
:10010000882311F0D79801C0D79ADF9808958823E3
:1001100011F0DC9A0895DC9808951F93DC9A11E0A1
:10012000812F8A95F1F780E0EBDF1A95F1F7DC98E3
:1001300083E08A95F1F71F9108951F9311E0812FB5
:100140008A95F1F7DC98812F8A95F1F780E0D8DF66
:10015000812F8A95F1F7DC9A1A95F1F781E0D0DFCB
:100160001F910895EF92FF921F93CF93DF93C0E00A
:10017000D0E0E82EFF24C7010C2E02C0880F991F83
:100180000A94E2F787FF02C081E001C080E0B8DF97
:1001900011E0812F8A95F1F7DC9A812F8A95F1F78A
:1001A000DC982196C830D10531F781E0A9DF812F95
:1001B0008A95F1F7DC9A812F8A95F1F789B3812F1F
:1001C0008A95F1F7DC98812F8A95F1F780E0DF912D
:1001D000CF911F91FF90EF9008951F920F920FB64D
:1001E0000F9211241F932F933F934F935F936F931D
:1001F0007F938F939F93AF93BF93EF93FF932CB510
:100200003DB51DBC1CBC8091EA00882309F0A3C049
:100210004FE0203A340708F454C028553B4108F019
:100220004AC08091C900813B09F042C01092C900C8
:1002300090E02AEA05C0E453FF4F8081280F9F5FBA
:100240008091CB00E92FF0E09817A8F3E453FF4F1B
:100250008081281769F590E031E022E488B3832794
:1002600088BB822F8A95F1F79F5F9032B9F718BA51
:100270008091CA008823D9F450DF80EA73DF80912F
:10028000CC0070DF8091CD006DDF10E005C0E2533F
:10029000FF4F808167DF1F5FE12FF0E08091CB008F
:1002A00090E00297E817F90794F347DF01C009DFF0
:1002B0001092EB0052C081E08093EA001092EB00B4
:1002C00041C08091C700869586958093C700C9017B
:1002D000805293408052934020F48091C7008093D5
:1002E000C700C901805496408052934028F4809101
:1002F000C70080648093C700C9018056994080522E
:10030000934028F48091C70080688093C7002058EC
:100310003C402052334028F48091C700806C809389
:10032000C7008091E900833081F4E091EB00F0E0B8
:100330008091C700E753FF4F80838091EB008F5F70
:100340008093EB001092E90008C08091E9008F5F74
:100350008093E90002C01092EA00FF91EF91BF91F3
:10036000AF919F918F917F916F915F914F913F914D
:100370002F911F910F900FBE0F901F9018950F9304
:100380001F9310E000E081E0BBDEDC9881E0982F55
:100390009A95F1F7DC9A8A95F1F7110FCF991160D0
:1003A00081E08A95F1F7DC980F5F083061F7812FC3
:1003B0001F910F9108951F93DC9811E0812F8A956A
:1003C000F1F780E09DDE812F8A95F1F7DC9A812F8D
:1003D0008A95F1F7DC98812F8A95F1F781E090DE1C
:1003E0001A95F1F71F9108951F93DC9811E0812F62
:1003F0008A95F1F781E084DE812F8A95F1F7DC9A06
:10040000812F8A95F1F7DC981A95F1F71F910895DD
:100410000F931F938C0181DE80EAA4DE812FA2DE80
:10042000802FA0DE7ADE81EA9DDEA9DF182FDCDFD7
:10043000812F1F910F9108950F931F93CF93DF93F7
:100440008C0186E0000F111F8A95E1F766DE80EAD5
:1004500089DE812F87DE802F85DE5FDE81EA82DE06
:10046000C0E0D0E08CDFFE01E957FF4F8083CF333F
:1004700011F4BADF01C09FDF2196C034D10591F796
:10048000DF91CF911F910F910895EF92FF920F93FB
:100490001F93CF93DF937C0129C0803239F410E0A1
:1004A00080E0E4DD1F5F1530D9F71BC0813211F405
:1004B00087E309C08F3311F48CE305C090E065E059
:1004C00070E0FFD0805F90E0EC01C058DF4F8C01FE
:1004D0000B571F4FCE019CDFC9DD2196C017D107F6
:1004E000C9F780E0C3DD0894E11CF11CF7018081AD
:1004F000882399F6DF91CF911F910F91FF90EF9094
:1005000008951F93162FDB988058B0DD812F805CF3
:10051000ADDDDB9A1F9108950F931F93142F022FC7
:10052000F0DF07C0E12FF0E0E957FF4F80819EDD4B
:100530001F5F1017B8F31F910F910895EF92FF926C
:100540000F931F93CF93DF9381B5886181BD11BC59
:100550008CE78ABB11E017BB82E085BF80E48BBFCC
:100560001FBC1EBD1CB924EC2BBB84ED90E3FC0129
:100570003197F1F704E80BBBE4ECF9E03197F1F7C0
:100580002BBB0197F1F781E271DD8CEA6FDD84E12D
:100590006DDD80E26BDD8CE069DD93DD80E887B99D
:1005A00006B980E183B911B980E090E045DF87E0CA
:1005B00060E040E029E0B0DF86E160E049E022E170
:1005C000ABDF85E260E042E12BE1A6DF84E360E09F
:1005D0004BE124E2A1DF83E460E044E22DE29CDF12
:1005E00087E065E04DE226E397DF86E165E046E3DC
:1005F0002FE392DF81E090E01FDF85E265E040E0DD
:1006000029E08ADF84E365E049E022E185DF83E4D5
:1006100065E042E12BE180DF84E163E072DF80E6A8
:1006200090E033DF7894C0E5D3EC2AE0E22E92E04C
:10063000F92E01E012DD182FCE010197F1F780911C
:10064000C800813021F08091C800823069F41536ED
:1006500058F0DB9881E40ADD80E808DDDB9A8BE660
:1006600090E013DF1092C8008091C800882379F4CD
:10067000103568F4DB9881E4F9DC80E8F7DCDB9A7C
:1006800084E790E002DFE0928600F092C80080915B
:10069000C800823079F680918600882331F08091FD
:1006A0008600815080938600C5CFDB9881E4DEDC34
:1006B00080E8DCDCDB9A8CE790E0E7DE0093C800A2
:1006C000B9CF5527002480FF02C0060E571F660FC2
:1006D000771F6115710521F096958795009799F719
:0A06E000952F802D0895F894FFCFA8
:1006EA0030313233343536373839004157414B458A
:1006FA0020202000534C454550203F00534C45458F
:06070A0050494E470000BB
:00000001FF
